:020000040800F2
:10000000C00A002001010008C52A0008552900087F
:10001000C12A0008ED080008E531000800000000D2
:10002000000000000000000000000000752B000828
:10003000F108000800000000352B0008CD2B000857
:100040001B0100081B0100081B0100081B01000820
:100050001B0100081B0100081B0100081B01000810
:100060001B0100081B0100081B0100081B01000800
:100070001B0100081B0100081B0100081B010008F0
:100080001B0100081B0100081B0100081B010008E0
:100090001B0100081B0100081B0100081B010008D0
:1000A0001B0100081B0100081B0100081B010008C0
:1000B000452C00081B0100081B0100081B0100085B
:1000C0001B0100081B0100081B0100081B010008A0
:1000D0001B0100081B0100081B0100081B01000890
:1000E0001B0100081B0100081B010008DFF80CD0F1
:1000F00000F0DAFB00480047CD320008C00A0020BB
:100100000648804706480047FEE7FEE7FEE7FEE7B1
:10011000FEE7FEE7FEE7FEE7FEE7FEE7412C00080C
:10012000ED000008D2B201E000F8012B491EFBD21D
:1001300070470022F6E710B513460A4604461946F2
:10014000FFF7F0FF204610BDF0B480EA0102D40FA3
:100150004200B2EB410F02D20246084611464A0065
:1001600042D0C30DDDB2C1F3C752AD1A202D35DA2E
:10017000C1F3160141F4000204B15242C5F1200658
:1001800002FA06F12A411044B3EBD05F23D0C4B188
:10019000012DA0EBC35009DCF0BC4FF0004202EA95
:1001A000C352DBB200F5000000F054BA400000F189
:1001B000807000EBC350A0F1807040EAD17049001C
:1001C00009E0490841EAC071A0EBC35000F5000006
:1001D000400800EBC350F0BC00F033BA614201228A
:1001E00002EB4101001BF6E7F0BC704781F00041D3
:1001F000AAE780F00040A7E780EA010210B502F00C
:100200000043400022D04A001FD0010E01EB1261D2
:10021000C0F35600C2F3560240F4000042F400025C
:10022000A0FB022000047F39140400D0401C50EAD7
:10023000124001D44000491EC2B20C0604EBD0109B
:10024000401C4008802A02D003E0002010BD20F0AE
:100250000100002900DA0020184310BD30B480EA04
:10026000010202F0004530F0004221F0004013D0BE
:1002700090B1C30DD40DC2F31601C0F31600E41AF9
:1002800041F4000140F400027D34914201D3641C2A
:1002900000E04900002C02DA30BC002070474FF427
:1002A00000000023914201D3891A034340084FEA1A
:1002B0004101F7D151B1914202D14FF0004105E027
:1002C00002D24FF0010101E06FF0010103EBC450D5
:1002D000284430BC00F0B5B92DE9FE4F804681EAD4
:1002E0000300C00F0C46009021F0004123F00045B0
:1002F000B8EB0200A94105D24046214690461C4673
:100300000B46024623F00040104347D0270DC7F3A9
:100310000A00C3F30A510290401A019040286BDA98
:10032000C3F3130040F4801B0098924620B10023D1
:10033000D2EB030A63EB0B0B01985946C0F1400264
:10034000504600F05DF906460D4650465946019A62
:1003500000F065F910EB08006141002487EA1152B2
:1003600084EAE7731A4340D0009A62B3019A012AE3
:100370004FEA075215DC001B61EB02014FF000420F
:1003800002EA0752CDE90042001C41F580113246D5
:100390002B4600F09CF903B0BDE8F08F40462146A3
:1003A000F9E7001B61EB0201001C41F58013001806
:1003B0005B412018A2F5001747EB030140EAD57016
:1003C000B6196D4111E06D084FEA360645EAC07571
:1003D0004FEA0752001B61EB0201001C41F580113E
:1003E00049084FEA30000019514132462B4603B00C
:1003F000BDE8F04F00F05CB90098012240000023F6
:10040000D0EB020263EBE073009821464FEAE07400
:10041000B8EB000061EB0401E9E783F000435BE720
:1004200081F0004158E72DE9FE4F81EA030404F012
:10043000004421F0004100944FF0000B23F00043F2
:1004400050EA01045ED052EA03045BD0C3F30A54BD
:10045000C1F30A552C44A4F2F3340194A0FB0254D6
:10046000C1F3130141F48011C3F3130343F4801368
:1004700001FB024400FB034E840A970A44EA8154BC
:1004800047EA8357A4FB076802958D0A05FB078599
:100490004FEA932C04FB0C542705029D4FEA0658A3
:1004A00047EA1637B5EB08056EEB070C870E920E80
:1004B00047EA811742EA8312A7FB0201B6EB0B0160
:1004C00064EB00042B0D43EA0C335E1844EB1C5024
:1004D000DA465146E7FB0201C5F313044FEA0B333A
:1004E00043EA14534FEA0432019C43EA0603A4F1A1
:1004F0000C040294009CCDE900B400F0E8F803B0CD
:10050000BDE8F08F00200146F9E79623002211464E
:1005100000F0A0B800F0004230F000400AD0C10D59
:1005200001F56071C0F3160042EA0151C2084007AC
:100530001143704700200146704701F0004330B47A
:1005400021F0004150EA010206D00A0DA2F56072C6
:10055000C1F31301002A02DC30BC00207047440FB5
:1005600044EAC104C100E01830BC00EBC25000F006
:1005700068B830B50B46014600202022012409E06E
:1005800021FA02F59D4205D303FA02F5491B04FA4C
:1005900002F52844151EA2F10102F1DC30BD2DE95F
:1005A000F05F0546002092469B46884606468146F7
:1005B00040241BE0284641464746224600F086F983
:1005C00053465A46C01A914110D311461846224646
:1005D00000F016F82D1A67EB01084F46224601205D
:1005E000002100F00DF817EB00094E41201EA4F188
:1005F0000104DFDC484631462A464346BDE8F09F09
:10060000202A04DB203A00FA02F1002070479140D2
:10061000C2F1200320FA03F3194390407047202AC7
:1006200006DBCB17203A41FA02F043EAE07306E01A
:1006300041FA02F3D040C2F120029140084319462A
:1006400070470029A8BF7047401C490008BF20F030
:100650000100704710B4B0FA80FC00FA0CF050EAC8
:10066000010404BF10BC704749B1CCF1200421FA49
:1006700004F411FA0CF118BF012121430843A3EB44
:100680000C01CB1D4FEA00614FEA102042BF002051
:1006900010BC704700EBC35010440029A4BF10BC2D
:1006A0007047401C490008BF20F0010010BC704793
:1006B00010B5141E73F1000408DA401C41F100016A
:1006C00092185B411A4301D120F0010010BD2DE9C1
:1006D000F04D92469B4611B1B1FA81F202E0B0FAB8
:1006E00080F220329046FFF78BFF04460F4640EA27
:1006F0000A0041EA0B0153465A46084313D01146FB
:1007000053EA010019D0C8F14002504600F0DEF86B
:1007100005460E46504659464246FFF771FF0843CC
:1007200005D0012004E020463946BDE8F08D0020C8
:10073000054346EAE0762C4337430A986305E40A0A
:10074000A0EB08000022FD0A44EA47540A3002D513
:1007500000200146E9E7010510196941DDE9084576
:1007600000196941BDE8F04DA2E72DE9F04D81EA9D
:10077000030404F0004B21F0004514464FF0000A3A
:1007800023F0004150EA050220D054EA01021DD0B6
:10079000C5F30A570246C5F31303C1F31300C1F3AF
:1007A0000A5640F4801543F48013A7EB0608101B8B
:1007B000D64608F2FD3873EB050002D308F10108B4
:1007C00001E092185B41B8F1000F03DA0020014606
:1007D000BDE8F08D00204FF48011064684460EE0FF
:1007E000171B73EB050705D3121B63EB05030643C9
:1007F0004CEA010C49084FEA300092185B4150EA7C
:100800000107EDD152EA030012D082EA040083EA24
:100810000501084305D0101BAB4106D2012200237D
:1008200006E000224FF0004302E06FF00102531097
:100830001AEB06004CEB085110EB0A0041EB0B01E0
:10084000BDE8F04DFFF734BFC1F30A52C1F3130105
:1008500040F2FF3341F480119A4202DA002001464F
:10086000704740F233439A42A2F2334202DC5242D2
:1008700000F02CB8FFF7C4BE30B5041E71F10004BF
:1008800004DB4FF00044404264EB0101141E73F19D
:10089000000405DB1C464FF00043524263EB0403A7
:1008A000994208BF904230BD064C074D06E0E06813
:1008B00040F0010394E8070098471034AC42F6D3A7
:1008C000FFF718FC243C0008443C0008202A04DB05
:1008D000203A21FA02F00021704721FA02F3D040B9
:1008E000C2F120029140084319467047FFE7FEE736
:1008F0007047000081B0EFF3108072B60090FFE700
:10090000FEE7000080B58AB040F22821C2F2000163
:100910000020086040F21521C2F20001087040F288
:100920002C20C2F20000082101F096FBFFE740F204
:100930001520C2F200000078012801D0FFE7F6E799
:1009400000208DF82700FFE79DF827007E284DDC6A
:10095000FFE79DF8270040F21001C2F2000151F8B4
:10096000200040F22422C2F20002059210609DF89D
:10097000270001EB800042688068821A40F2202044
:10098000C2F2000002609DF8272001EB8201896815
:1009900040F21C22C2F20002069211600068FFF7CA
:1009A000B4FD059902460698079200680968401A46
:1009B000FFF7ABFD01460798FFF750FC014640F2F8
:1009C0001820C2F200000160016840F22820C2F243
:1009D000000008900068FFF7B7FB08990860FFE780
:1009E0009DF8270002308DF82700ADE740F228205F
:1009F000C2F2000000684FF08541FFF72FFC01466E
:100A000000910846FFF7F8FBFFF784FD02460098C7
:100A100001920291FFF77EFD4BF65202C8F21E5280
:100A20004DF2EB13C4F26A03FFF7FDFC0246019896
:100A300003920A460299049247F6E122CAF614622A
:100A40004EF24713CBF6F673FFF7EDFC039A049BC7
:100A5000FFF742FC4FF0663242F26663CCF251037C
:100A6000FFF73AFCFFF769FD014640F2B820C2F2F9
:100A70000000016000680AB080BD000080B584B04D
:100A8000039000F0ADF902900398019001980130B5
:100A900048B1FFE740F20800C2F200000178019877
:100AA00008440190FFE7FFE700F09AF90299401A25
:100AB0000199884201D2FFE7F6E704B080BD00004B
:100AC00090B00F900E9100200D900990FFE70E98C6
:100AD00000680D99C840002800F07F81FFE70D995C
:100AE000012088400C900E9800680C9908400B90EB
:100AF0000B980C99884240F06C81FFE70E98406893
:100B00000590002851D0FFE7059801283AD0FFE76B
:100B1000059802283FD0FFE7059803285FD0FFE73C
:100B20000598112832D0FFE70598122838D0FFE742
:100B300005980021C1F21101884236D0FFE70598DF
:100B40000021C1F2120188422FD0FFE70598002151
:100B5000C1F22101884228D0FFE705980021C1F2A7
:100B60002201884221D0FFE705980021C1F231011E
:100B700088421AD0FFE705980021C1F2320188426D
:100B800013D02FE00E98C06809902CE00E98C06832
:100B90000430099027E00E98C0680830099022E0E0
:100BA0000E98C0680C3009901DE00E98806818B946
:100BB000FFE70420099011E00E988068012806D113
:100BC000FFE7082009900C980F99086105E00820BC
:100BD00009900C980F994861FFE7FFE703E00020B8
:100BE000099000E0FFE70B98FF2803D8FFE70F9874
:100BF000049003E00F9804300490FFE704980890F5
:100C00000B98FF2804D8FFE70D988000039006E0BA
:100C10000D996FF01F0000EB81000390FFE7039830
:100C2000079008980068079A0F2191408843099916
:100C300091400843089908600E98C079C0060028C2
:100C400040F1C680FFE7FFE741F21800C4F202005E
:100C5000016841F001010160006800F001000690A8
:100C60000698FFE70D9820F003000821C4F2010167
:100C700040580A900D9800F0030081000F2000FA00
:100C800001F10A9888430A900F9840F60001C4F2D7
:100C90000101884203D1FFE70020029026E00F986F
:100CA00040F60041C4F20101884203D1FFE7012070
:100CB000019018E00F9841F20001C4F2010188424E
:100CC00003D1FFE7022000900AE00F9941F20042B1
:100CD000C4F201020420914208BF03200090FFE704
:100CE00000980190FFE701980290FFE702980D99A4
:100CF00001F00301890000FA01F10A9808430A9003
:100D00000A980D9921F003010822C4F201028850CB
:100D10000E988079C00748B1FFE70B9A40F2004176
:100D2000C4F2010108681043086008E00B9A40F221
:100D30000041C4F20101086890430860FFE70E9883
:100D400080798007002809D5FFE70B9A40F204411B
:100D5000C4F2010108681043086008E00B9A40F2F1
:100D60000441C4F20101086890430860FFE70E984F
:100D70008079C006002809D5FFE70B9A40F20841A8
:100D8000C4F2010108681043086008E00B9A40F2C1
:100D90000841C4F20101086890430860FFE70E981B
:100DA00080798006002809D5FFE70B9A40F20C41B4
:100DB000C4F2010108681043086008E00B9A40F291
:100DC0000C41C4F20101086890430860FFE7FFE7A7
:100DD000FFE70D9801300D9079E610B070470000E4
:100DE00040F2BC20C2F200000068704740F20800E8
:100DF000C2F20000027840F2BC21C2F20001086891
:100E0000104408607047000080B542F20001C4F24F
:100E10000201086840F010000860032000F096F816
:100E20000F2000F005F800F03BF8002080BD000026
:100E300080B582B0009040F20400C2F20000006869
:100E400040F20801C2F200010A784FF47A71B1FB56
:100E5000F2F1B0FBF1F000F087FD20B1FFE70120D7
:100E60008DF8070018E000980F280DD8FFE70099CB
:100E70004FF0FF30002200F04FF8009840F20C01D4
:100E8000C2F20001086003E001208DF8070003E0D2
:100E900000208DF80700FFE79DF8070002B080BD35
:100EA00083B0FFE741F21800C4F20200016841F08C
:100EB00001010160006800F0010002900298FFE764
:100EC000FFE741F21C00C4F20200016841F08051CA
:100ED0000160006800F0805001900198FFE7FFE793
:100EE0000421C4F2010108680090009820F0E0603D
:100EF0000090009840F00070009000980860FFE7B4
:100F000003B0704780B582B08DF807009DF90700E7
:100F100002F06AF902B080BD80B586B08DF8170086
:100F2000049103920020029002F076F902909DF95C
:100F30001700019002980499039A01F0C5FD01463B
:100F4000019802F071F906B080BD000080B582B052
:100F50000190019802F08AF902B080BD80B584B09A
:100F600002900191029820B9FFE701208DF80F004F
:100F70001BE1019842F20001C4F20201096801F08C
:100F80000701884216D9FFE742F20000C4F20200CE
:100F9000016821F00701019A11430160006800F027
:100FA00007000199884204D0FFE701208DF80F0067
:100FB000FBE0FFE702980078800700282AD5FFE7CA
:100FC000029800784007002809D5FFE741F20401A4
:100FD000C4F20201086840F4E0600860FFE702988C
:100FE00000780007002809D5FFE741F20401C4F2A8
:100FF0000201086840F460500860FFE741F2040114
:10100000C4F20201086820F0F000029A92681043CE
:101010000860FFE702980078C007002860D0FFE76B
:101020000298406801280ED1FFE741F20000C4F2A7
:10103000020000688003002804D4FFE701208DF837
:101040000F00B2E021E00298406802280ED1FFE7CD
:1010500041F20000C4F2020000688001002804D4BC
:10106000FFE701208DF80F009FE00DE041F2000046
:10107000C4F2020000688007002804D4FFE70120C2
:101080008DF80F0091E0FFE7FFE741F20401C4F2A1
:101090000201086820F00300029A526810430860B9
:1010A000FFF79EFE0090FFE741F20400C4F2020049
:1010B000006800F00C0002994968B0EB810F0ED077
:1010C000FFE7FFF78DFE0099401A41F2893188420F
:1010D00004D3FFE703208DF80F0066E0E4E7FFE7A5
:1010E000019842F20001C4F20201096801F007010F
:1010F000884216D2FFE742F20000C4F20200016803
:1011000021F00701019A11430160006800F0070017
:101110000199884204D0FFE701208DF80F0044E0D8
:10112000FFE702980078400700280CD5FFE741F25E
:101130000401C4F20201086820F4E060029AD26857
:1011400010430860FFE702980078000700280DD5DB
:10115000FFE741F20401C4F20201086820F4605084
:10116000029A126940EAC2000860FFE700F04CF8FA
:1011700041F20401C4F202010968C9B20A0943F646
:10118000FE31C0F60001895CC84040F20401C2F2A1
:101190000001086040F20C00C2F200000068FFF796
:1011A00047FE00208DF80F00FFE79DF80F0004B008
:1011B00080BD000040F20400C2F2000000687047E9
:1011C00080B5FFF7F7FF41F20401C4F2020109689C
:1011D000C1F3022243F60E41C0F60001895CC8400B
:1011E00080BD000080B5FFF7E5FF41F20401C4F2C5
:1011F00002010968C1F3C22243F60E41C0F60001A4
:10120000895CC84080BD00008BB040F60E70C1F212
:1012100010000A9040F60A30C0F60C50099040F2D7
:101220000670C0F60810089040F20230C0F2045078
:10123000079040F20120ADF81A00002005900490BC
:1012400003900290019041F20400C4F20200006891
:101250000590059800F00C0001460091E0B3FFE70F
:101260000098042804D0FFE70098082806D034E04E
:1012700041F20020C0F27A00019034E00598C0F3FA
:10128000834107A8405C02909DF81600C007C0B1DA
:10129000FFE741F20400C4F20200006800F40031EC
:1012A0000DF11A0040EA514000780490029841F292
:1012B0000021C0F27A0148430499B0FBF1F0039099
:1012C00007E0029840F60011C0F23D014843039048
:1012D000FFE70398019006E0FFE741F20020C0F22B
:1012E0007A000190FFE701980BB0704780B586B097
:1012F0000490049820B9FFE701208DF817002EE331
:1013000004980078C007002800F0AE80FFE741F2A3
:101310000400C4F20200006800F00C00042813D09E
:10132000FFE741F20400C4F20200006800F00C0084
:1013300008281BD1FFE741F20400C4F20200006854
:10134000C003002812D5FFE741F20000C4F20200FA
:1013500000688003002808D5FFE70498406820B99A
:10136000FFE701208DF81700F9E27CE0FFE7049821
:101370004068B0F5803F09D1FFE741F20001C4F2B7
:101380000201086840F48030086032E00498406848
:1013900068B9FFE741F20001C4F20201086820F4D5
:1013A00080300860086820F48020086020E00498FD
:1013B0004068B0F5A02F0DD1FFE741F20001C4F263
:1013C0000201086840F480200860086840F480301A
:1013D00008600CE041F20001C4F20201086820F448
:1013E00080300860086820F480200860FFE7FFE78D
:1013F000FFE7FFE704984068D0B1FFE7FFF7F0FC94
:101400000390FFE741F20000C4F20200006880038D
:1014100000280CD4FFE7FFF7E3FC0399401A652886
:1014200004D3FFE703208DF8170098E2EAE719E0FC
:10143000FFF7D6FC0390FFE741F20000C4F2020080
:101440000068800300280CD5FFE7FFF7C9FC03996B
:10145000401A652804D3FFE703208DF817007EE2C9
:10146000EAE7FFE7FFE7FFE7049800788007002836
:1014700040F18D80FFE741F20400C4F202000068F1
:1014800010F00C0F13D0FFE741F20400C4F2020089
:10149000006800F00C00082829D1FFE741F20400A1
:1014A000C4F202000068C003002820D4FFE741F224
:1014B0000000C4F2020000688007002809D5FFE799
:1014C00004980069012804D0FFE701208DF8170077
:1014D00045E241F20001C4F20201086820F0F80080
:1014E000049A526940EAC2000860FFE74EE004989F
:1014F000006958B3FFE70021C4F2422101200860CF
:10150000FFF76EFC0390FFE741F20000C4F2020017
:101510000068800700280CD4FFE7FFF761FC0399FF
:10152000401A032804D3FFE703208DF8170016E2C2
:10153000EAE741F20001C4F20201086820F0F80075
:10154000049A526940EAC20008601EE00021C4F219
:10155000422100200860FFF743FC0390FFE741F2BF
:101560000000C4F202000068800700280CD5FFE7E5
:10157000FFF736FC0399401A032804D3FFE7032042
:101580008DF81700EBE1EAE7FFE7FFE7FFE70498D4
:1015900000780007002848D5FFE70498806918B351
:1015A000FFE740F28041C4F2422101200860FFF7CA
:1015B00017FC0390FFE741F22400C4F20200006828
:1015C000800700280CD4FFE7FFF70AFC0399401AB4
:1015D000032804D3FFE703208DF81700BFE1EAE7F3
:1015E000012001F0A9FA1FE040F28041C4F242213B
:1015F00000200860FFF7F4FB0390FFE741F22400AE
:10160000C4F202000068800700280CD5FFE7FFF74E
:10161000E7FB0399401A032804D3FFE703208DF862
:1016200017009CE1EAE7FFE7FFE70498007840072E
:10163000002840F1D880FFE700208DF8070041F234
:101640001C00C4F202000068C000002813D4FFE7A9
:10165000FFE741F21C00C4F20200016841F0805132
:101660000160006800F0805000900098FFE70120C2
:101670008DF80700FFE747F20000C4F200000068A1
:10168000C005002822D4FFE747F20001C4F20001A0
:10169000086840F480700860FFF7A2FB0390FFE742
:1016A00047F20000C4F200000068C00500280CD416
:1016B000FFE7FFF795FB0399401A652804D3FFE77E
:1016C00003208DF817004AE1EAE7FFE7FFE70498F7
:1016D000C068012809D1FFE741F22001C4F20201EC
:1016E000086840F00100086031E00498C06868B9FB
:1016F000FFE741F22001C4F20201086820F0010076
:101700000860086820F0040008601FE00498C068C2
:1017100005280DD1FFE741F22001C4F2020108685B
:1017200040F004000860086840F0010008600CE028
:1017300041F22001C4F20201086820F001000860B3
:10174000086820F004000860FFE7FFE7FFE7FFE715
:101750000498C068E0B1FFE7FFF742FB0390FFE7A2
:1017600041F22000C4F202000068800700280ED475
:10177000FFE7FFF735FB0399401A41F289318842B0
:1017800004D3FFE703208DF81700E8E0E8E71BE04B
:10179000FFF726FB0390FFE741F22000C4F20200AE
:1017A0000068800700280ED5FFE7FFF719FB0399B3
:1017B000401A41F28931884204D3FFE703208DF8B3
:1017C0001700CCE0E8E7FFE79DF80700012809D102
:1017D000FFE741F21C01C4F20201086820F08050CA
:1017E0000860FFE7FFE70498C069002800F0B380B5
:1017F000FFE741F20400C4F20200006800F00C00B0
:10180000082800F08280FFE70498C06902285CD1B4
:10181000FFE76021C4F2422100200860FFF7E0FAF0
:101820000390FFE741F20000C4F20200006880016B
:1018300000280CD5FFE7FFF7D3FA0399401A0328D5
:1018400004D3FFE703208DF8170088E0EAE7049847
:10185000006AB0F5803F0CD1FFE741F20401C4F209
:101860000201086820F40030049A9268104308606E
:10187000FFE741F20401C4F20201086820F4741089
:10188000049B1A6A5B6A1A43104308606021C4F221
:10189000422101200860FFF7A3FA0390FFE741F21D
:1018A0000000C4F202000068800100280CD4FFE7A9
:1018B000FFF796FA0399401A032804D3FFE70320A1
:1018C0008DF817004BE0EAE71EE06021C4F24221E8
:1018D00000200860FFF784FA0390FFE741F2000060
:1018E000C4F202000068800100280CD5FFE7FFF772
:1018F00077FA0399401A032804D3FFE703208DF8F1
:1019000017002CE0EAE7FFE724E00498C06901280B
:1019100004D1FFE701208DF8170020E041F2040018
:10192000C4F2020000680290029800F4803004992A
:10193000096A884208D1FFE7029800F47010049900
:10194000496A884204D0FFE701208DF8170006E0BD
:10195000FFE7FFE7FFE700208DF81700FFE79DF89E
:10196000170006B080BD000080B582B001900198DC
:1019700001F002F902B080BD81B0009001B0704763
:1019800081B0009001B0704785B003900291FFE7ED
:10199000039890F83C00012804D1FFE702208DF85D
:1019A00013005BE00399012081F83C00FFE7FFE7AB
:1019B0000399022081F83D00039800684068019077
:1019C0000398006880680090019820F070000190F2
:1019D00002980168019808430190019803990968E9
:1019E00048600398006842F60041C4F20101884251
:1019F00018D0FFE703980068B0F1804F12D0FFE7DE
:101A00000398006840F20041C4F20001884209D006
:101A1000FFE70398006840F60001C4F20001884225
:101A20000ED1FFE7009820F08000009002984168F6
:101A30000098084300900098039909688860FFE7C0
:101A40000399012081F83D00FFE70399002081F808
:101A50003C00FFE700208DF81300FFE79DF813001E
:101A600005B0704780B582B00090009820B9FFE7BC
:101A700001208DF807003FE0009890F83D0040B944
:101A8000FFE70099002081F83C00009800F038F84A
:101A9000FFE70099022081F83D00009951F8040BFE
:101AA00001F0D8F80099012081F84600FFE700997D
:101AB000012081F83E00009981F83F00009981F8EB
:101AC0004000009981F84100FFE7FFE700990120FD
:101AD00081F84200009981F84300009981F84400A0
:101AE000009981F84500FFE70099012081F83D0049
:101AF00000208DF80700FFE79DF8070002B080BDC9
:101B000080B58AB009900020089007900690059053
:101B100009980068B0F1804F4BD1FFE7FFE741F231
:101B20001C00C4F20200016841F00101016000687C
:101B300000F0010004900498FFE7FFE741F218006D
:101B4000C4F20200016841F008010160006800F081
:101B5000080003900398FFE74FF480600590002091
:101B600006900220079040F60040C4F2010005A94B
:101B7000FEF7A6FFFFE70421C4F201010868029006
:101B8000029820F440700290029840F0E0600290C9
:101B9000029840F40070029002980860FFE71C2051
:101BA000019000221146FFF7B7F90198FFF7AAF953
:101BB000FFE70AB080BD000080B586B004900391B5
:101BC000FFE7049890F83C00012804D1FFE70220C9
:101BD0008DF81700A7E00499012081F83C00FFE789
:101BE000FFE70499022081F83D00049800688068AE
:101BF0000290029820F077000290029820F47F4033
:101C0000029002980499096888600398006801901E
:101C1000002872D0FFE7019810286ED0FFE70198E6
:101C200020286AD0FFE70198302866D0FFE70198A6
:101C3000402855D0FFE70198502837D0FFE701989A
:101C4000602840D0FFE7019870280BD0FFE701988B
:101C5000B0F5805F05D0FFE70198B0F5005F16D0C2
:101C600052E052E004980068039B5A689968DB6868
:101C700001F084F80498006880680290029840F0AF
:101C80007700029002980499096888603DE0049802
:101C90000068039B5A689968DB6801F06FF8049844
:101CA0000168886840F4804088602EE004980068ED
:101CB000039A5168D26801F091F8049800685021A5
:101CC00001F076F821E004980068039A5168D26820
:101CD00001F010F904980068602101F069F814E03F
:101CE00004980068039A5168D26801F077F8049864
:101CF0000068402101F05CF807E00498006803994F
:101D0000096801F055F800E0FFE70499012081F827
:101D10003D00FFE70499002081F83C00FFE7002028
:101D20008DF81700FFE79DF8170006B080BD000092
:101D300080B582B0019001980068B0F1804F40F00A
:101D4000AA80FFE740F22C20C2F20000082100F038
:101D500091FC40F21621C2F200010978C1EB014169
:101D6000421840F21421C2F200010B7840F2100038
:101D7000C2F2000040F823200A7800EB820150F8FC
:101D8000220051F8041C884220D2FFE740F21420C0
:101D9000C2F200000078012818DBFFE740F21420AF
:101DA000C2F20000027840F21001C2F2000151F8C4
:101DB00022004FF6FF73184441F8220040F216212A
:101DC000C2F20001087801300870FFE740F21420E9
:101DD000C2F200000078C00788B1FFE7FFE740F2D9
:101DE0002C20C2F200000268116A21F40071116215
:101DF0000168086A40F400700862FFE7FFE740F2FC
:101E00001420C2F200000078C00778B9FFE7FFE7AE
:101E100040F22C20C2F200000268116A21F4007125
:101E200011620168086A0862FFE7FFE740F21420C8
:101E3000C2F200000178013101700078812829D1B7
:101E4000FFE7FFE740F22C20C2F200000268116AAF
:101E500021F4007111620168086A40F400700862A0
:101E6000FFE740F22C20C2F20000082100F018FA2F
:101E700040F21521C2F200010120087040F2142145
:101E8000C2F200010020087040F21621C2F20001E7
:101E90000870FFE7FFE702B080BD000080B584B0A6
:101EA000029001910092FFE7029890F83C0001280F
:101EB00004D1FFE702208DF80F0076E0029901209F
:101EC00081F83C00FFE7FFE70098B0B9FFE7029810
:101ED0000068019B19685A68DB6800F0A7FF029848
:101EE0000168886920F00C00886101988268029876
:101EF00001688869104388614DE00098042817D173
:101F0000FFE702980068019B19685A68DB6801F0D6
:101F10001BF802980168886920F440608861019884
:101F2000826802980168886940EA0220886131E08D
:101F30000098082816D1FFE702980068019B1968ED
:101F40005A68DB6801F036F802980168C86920F029
:101F50000C00C8610198826802980168C869104342
:101F6000C86116E002980068019B19685A68DB682E
:101F700001F056F802980168C86920F44060C86111
:101F80000198826802980168C86940EA0220C86125
:101F9000FFE7FFE7FFE7FFE70299002081F83C0039
:101FA000FFE700208DF80F00FFE79DF80F0004B059
:101FB00080BD000080B582B00090009820B9FFE796
:101FC00001208DF807003FE0009890F83D0040B9EF
:101FD000FFE70099002081F83C00009800F038F8F5
:101FE000FFE70099022081F83D00009951F8040BA9
:101FF00000F030FE0099012081F84600FFE70099CB
:10200000012081F83E00009981F83F00009981F895
:102010004000009981F84100FFE7FFE700990120A7
:1020200081F84200009981F84300009981F844004A
:10203000009981F84500FFE70099012081F83D00F3
:1020400000208DF80700FFE79DF8070002B080BD73
:1020500081B0009001B0704780B590B00E900D91A6
:102060000D9828B9FFE70E9890F83E000A901CE002
:102070000D98042805D1FFE70E9890F83F000990CD
:1020800010E00D98082805D1FFE70E9890F8400061
:10209000089004E00E9890F841000890FFE7089837
:1020A0000990FFE709980A90FFE70A988DF82F003A
:1020B0000D9828B9FFE70E9890F8420007901CE0B1
:1020C0000D98042805D1FFE70E9890F8430006907C
:1020D00010E00D98082805D1FFE70E9890F844000D
:1020E000059004E00E9890F845000590FFE70598EC
:1020F0000690FFE706980790FFE707988DF82E00F7
:102100009DF82F00012805D1FFE79DF82E0001283A
:1021100004D0FFE701208DF83F00BCE00D9828B9FE
:10212000FFE70E99022081F83E001EE00D9804287A
:1021300006D1FFE70E99022081F83F00049012E0DB
:102140000D98082806D1FFE70E99022081F840007B
:10215000039005E00E99022081F841000390FFE70B
:1021600003980490FFE70498FFE70D9828B9FFE76C
:102170000E99022081F842001EE00D98042806D135
:10218000FFE70E99022081F84300029012E00D98BB
:10219000082806D1FFE70E99022081F8440001903B
:1021A00005E00E99022081F845000190FFE70198B3
:1021B0000290FFE70298FFE70D9800900C2825D8C1
:1021C0000099DFE801F0072323230E23232315239F
:1021D00023231C000E980168C86840F00200C86004
:1021E00015E00E980168C86840F00400C8600EE071
:1021F0000E980168C86840F00800C86007E00E98B3
:102200000168C86840F01000C86000E0FFE70E9861
:1022100000680D99012200F095FD0E98006842F6C5
:102220000041C4F20101884218D0FFE70E9800680F
:10223000B0F1804F12D0FFE70E98006840F20041E5
:10224000C4F20001884209D0FFE70E98006840F60A
:102250000001C4F20001884212D1FFE70E98006825
:10226000806800F007000C900C98062807D0FFE764
:102270000E980168086840F001000860FFE706E07A
:102280000E980168086840F001000860FFE7002030
:102290008DF83F00FFE79DF83F0010B080BD0000C3
:1022A00080B588B007900691069805900C2825D82F
:1022B0000599DFE801F0072323230E2323231523A9
:1022C00023231C0007980168C86820F00200C8603A
:1022D00015E007980168C86820F00400C8600EE0A7
:1022E00007980168C86820F00800C86007E00798F0
:1022F0000168C86820F01000C86000E0FFE7079898
:1023000000680699002200F01DFDFFE707980068AD
:10231000006A41F21111084210D1FFE707980068E6
:10232000006A40F24441084207D1FFE7079801687C
:10233000086820F001000860FFE7FFE7FFE7069864
:1023400028B9FFE70799012081F83E001EE00698B2
:10235000042806D1FFE70799012081F83F00049087
:1023600012E00698082806D1FFE70799012081F8B6
:102370004000039005E00799012081F84100039097
:10238000FFE703980490FFE70498FFE7069828B951
:10239000FFE70799012081F842001EE00698042813
:1023A00006D1FFE70799012081F84300029012E06F
:1023B0000698082806D1FFE70799012081F8440014
:1023C000019005E00799012081F845000190FFE7A1
:1023D00001980290FFE70298FFE7002008B080BD57
:1023E00080B582B0019001980068006900F0020198
:1023F0000020B0EB510F28D0FFE701980068C068BB
:1024000000F002010020B0EB510F1DD0FFE7019852
:1024100001686FF0020008610199012008770198B6
:1024200000688069800720B1FFE70198FFF780FC12
:1024300006E0019800F012F9019800F013F9FFE7A7
:10244000019900200877FFE7FFE70198006800691D
:1024500000F004010020B0EB910F29D0FFE70198B4
:102460000068C06800F004010020B0EB910F1ED09E
:10247000FFE7019801686FF00400086101990220EC
:10248000087701980068806910F4407F04D0FFE766
:102490000198FFF74DFC06E0019800F0DFF8019885
:1024A00000F0E0F8FFE7019900200877FFE7FFE779
:1024B00001980068006900F008010020B0EBD10F1E
:1024C00028D0FFE701980068C06800F008010020EC
:1024D000B0EBD10F1DD0FFE7019801686FF0080045
:1024E000086101990420087701980068C069800795
:1024F00020B1FFE70198FFF71BFC06E0019800F010
:10250000ADF8019800F0AEF8FFE7019900200877D8
:10251000FFE7FFE701980068006900F01001002064
:10252000B0EB111F29D0FFE701980068C06800F0E8
:1025300010010020B0EB111F1ED0FFE701980168C9
:102540006FF0100008610199082008770198006871
:10255000C06910F4407F04D0FFE70198FFF7E8FB63
:1025600006E0019800F07AF8019800F07BF8FFE7A8
:10257000019900200877FFE7FFE7019800680069EC
:10258000C00780B1FFE701980068C068C00748B184
:10259000FFE7019801686FF001000861019800F001
:1025A00065F8FFE7FFE7019800680069C1B2002005
:1025B000B0EBD11F13D0FFE701980068C068C1B22B
:1025C0000020B0EBD11F09D0FFE7019801686FF040
:1025D000800008610198FFF7CFF9FFE7FFE7019856
:1025E0000068006900F040010020B0EB911F14D09A
:1025F000FFE701980068C06800F040010020B0EBE0
:10260000911F09D0FFE7019801686FF04000086151
:10261000019800F05BF8FFE7FFE7019800680069A8
:1026200000F020010020B0EB511F14D0FFE701980B
:102630000068C06800F020010020B0EB511F09D0F5
:10264000FFE7019801686FF0200008610198FFF72B
:1026500097F9FFE7FFE702B080BD000081B000906E
:1026600001B0704781B0009001B0704781B0009018
:1026700001B0704784B0039002910020019002984D
:1026800000900C281DD80099DFE801F0071B1B1BE8
:102690000C1B1B1B111B1B1B160003980068406BB7
:1026A00001900FE003980068806B01900AE00398A6
:1026B0000068C06B019005E003980068006C019011
:1026C00000E0FFE7019804B07047000081B000907F
:1026D00001B0704780B582B00090009820B9FFE744
:1026E00001208DF807003EE00098806908B1FFE7FF
:1026F00000E0FFE7009890F83D0040B9FFE700993F
:10270000002081F83C00009800F032F8FFE70099C3
:10271000242081F83D0000980168C86820F400502A
:10272000C860009800F0B2FC00980168086920F4C5
:102730009040086100980168486920F02A004861CB
:1027400000980168C86840F40050C86000990020F3
:102750000864009A202182F83D10009A82F83E1009
:102760008DF80700FFE79DF8070002B080BD00006C
:1027700080B58AB0099000200890079006900590D7
:102780000998006844F20041C4F20001884237D140
:10279000FFE7FFE741F21C00C4F20200016841F4C8
:1027A00000310160006800F4003004900498FFE7F5
:1027B000FFE741F21800C4F20200016841F0040191
:1027C0000160006800F0040003900398FFE7042014
:1027D0000590022006900320089040F60000C4F205
:1027E0000100019005A90291FEF76AF9019802998A
:1027F00008220592002206920792FEF761F9FFE790
:102800000AB080BD80B58AB008900791ADF81A2053
:10281000059300200290089890F83D00202840F091
:102820009080FFE7079820B1FFE7BDF81A0020B9B4
:10283000FFE701208DF8270087E0FFE7089890F870
:102840003C00012804D1FFE702208DF827007CE03E
:102850000899012081F83C00FFE7FFE70899002074
:1028600008640899212081F83D00FEF7B9FA02902A
:10287000BDF81A0008998884BDF81A000899C88420
:1028800008988068B0F5805F09D1FFE70898006973
:1028900028B9FFE7002004900798039004E0079808
:1028A000049000200390FFE7FFE70899002081F8DB
:1028B0003C00FFE7FFE70898C08C58B3FFE7089893
:1028C000029B05996A4611608021002200F03CFCC1
:1028D00020B1FFE703208DF8270036E0049858B9AF
:1028E000FFE7039800886FF35F2008990968486044
:1028F00003980230039008E004980078089909686A
:102900004860049801300490FFE70899C88C0138AA
:10291000C884D0E70898029B05996A461160402157
:10292000002200F011FC20B1FFE703208DF8270002
:102930000BE00899202081F83D0000208DF8270049
:1029400003E002208DF82700FFE79DF827000AB07A
:1029500080BD0000FFE7FEE783B0FFE741F218000B
:10296000C4F20200016841F020010160006800F03B
:10297000200002900298FFE7FFE741F21800C4F23E
:102980000200016841F004010160006800F00400E9
:1029900001900198FFE7FFE741F21800C4F202003E
:1029A000016841F008010160006800F00800009033
:1029B0000098FFE703B0704780B58CB0002101910B
:1029C0000B910A9109910891079106910591049143
:1029D0000391029140F22C20C2F200004FF080429D
:1029E0000260416081604FF6FF72C2600161802128
:1029F0008161FFF737F818B1FFE7FDF77BFFFFE7CD
:102A00004FF48050089040F22C20C2F2000008A938
:102A1000FFF7D2F818B1FFE7FDF76CFFFFE740F2D0
:102A20002C20C2F20000FFF7C5FA18B1FFE7FDF74E
:102A300061FFFFE700200690079040F22C20C2F2D1
:102A4000000006A9FEF7A0FF18B1FFE7FDF752FF4F
:102A5000FFE70220029001200390002004900590DF
:102A600040F22C20C2F2000002A90822FFF716FA59
:102A700018B1FFE7FDF73EFFFFE70CB080BD000097
:102A800080B582B040F27420C2F20000019044F29E
:102A90000041C4F2000101604FF4E13141600021C6
:102AA0008160C16001610C2242618161C161FFF7F7
:102AB00011FE18B1FFE7FDF71DFFFFE702B080BD73
:102AC000FFE7FEE7FFE7FEE788B007900691059273
:102AD000079800F0070004900498C0F1070005284B
:102AE00003D3FFE70420019004E00498C0F107003D
:102AF0000190FFE70198039004980430062803D85A
:102B0000FFE70020009003E0049803380090FFE7FF
:102B10000098029006980399012202FA01F1013906
:102B20000840029B984005999A40013A1140084399
:102B300008B070477047000082B00190019840F2E1
:102B40000401C2F200010968C90844F6D352C1F277
:102B50006202A1FB0221890948430090FFE700BF00
:102B6000FFE70098411E00910028F8D1FFE702B06E
:102B7000704700007047000080B582B00090009858
:102B80000138B0F1807F03D3FFE70120019019E005
:102B9000009801384EF21401CEF2000108604FF0A7
:102BA000FF300F2100F040FB4EF21801CEF2000181
:102BB000002008604EF21002CEF2000207211160E0
:102BC0000190FFE7019802B080BD000080B5FEF7DC
:102BD0000DF980BD80B590B006A800902821FDF7C2
:102BE000A8FA00980023059304930393029301939A
:102BF000012206924FF48031079108930A92022233
:102C00000D920E914FF4E0110F91FEF76FFB18B18A
:102C1000FFE7FDF76FFEFFE70F2001900221029111
:102C2000002003904FF480620492059001A8FEF703
:102C300095F918B1FFE7FDF75DFEFFE710B080BD25
:102C40007047000080B540F22C20C2F20000FFF770
:102C5000C7FB80BD83B0029001910298006800908C
:102C6000029842F60041C4F20101884215D0FFE704
:102C70000298B0F1804F10D0FFE7029840F2004177
:102C8000C4F20001884208D0FFE7029840F6000134
:102C9000C4F2000188420AD1FFE7009820F07000DA
:102CA000009001984168009808430090FFE702985F
:102CB00042F60041C4F20101884215D0FFE70298B4
:102CC000B0F1804F10D0FFE7029840F20041C4F20B
:102CD0000001884208D0FFE7029840F60001C4F2E4
:102CE000000188420AD1FFE7009820F4407000906C
:102CF0000198C168009808430090FFE7009820F011
:102D00008000019949690843009000980299086081
:102D1000019880680299C8620198006802998862E7
:102D2000029842F60041C4F20101884205D1FFE752
:102D30000198006902990863FFE702990120486140
:102D400003B0704784B0039002910192029800F0A2
:102D50001F01012088400090009A0399086A90435F
:102D600008620198029901F01F0100FA01F203992B
:102D7000086A1043086204B07047000085B00490F0
:102D8000039102920193049880680090009820F4C7
:102D90007F40009003980299019A41EA0221014381
:102DA00000980843009000980499886005B0704727
:102DB00083B002900191029880680090009820F002
:102DC0007000009001980099084340F007000090BF
:102DD00000980299886003B07047000085B00490A5
:102DE000039102920498006A00900499086A20F006
:102DF00001000862049880690190019820F0F000B9
:102E000001900299019840EA01100190009820F089
:102E10000A000090039900980843009001980499D3
:102E2000886100980499086205B0704787B00690E1
:102E30000591049203930699086A20F00100086244
:102E40000698806902900698006A01900699012010
:102E500042F60042C4F20102914200901CD0FFE70A
:102E600006990120B1F1804F009015D0FFE7069937
:102E7000012040F20042C4F20002914200900BD0C7
:102E8000FFE706984FF60001CBF6FF710844B0FA51
:102E900080F040090090FFE70098C00748B1FFE7C5
:102EA000029820F0030002900499029808430290CF
:102EB00004E0029840F001000290FFE7029820F041
:102EC000F000029003980001C1B2029808430290FA
:102ED000019820F00A000190059800F00A0101987D
:102EE0000843019002980699886101980699086242
:102EF00007B0704785B00490039102920499086A64
:102F000020F0100008620498806901900498006A1B
:102F10000090019820F4704001900299019840EAD5
:102F200001300190009820F0A000009003990098D3
:102F300040EA011000900198049988610098049972
:102F4000086205B07047000086B0059004910392B6
:102F500002930599086A20F01000086205988069BC
:102F600001900598006A0090019820F4407001904B
:102F70000399019840EA01200190019820F47040E3
:102F800001900298000381B20198084301900098D3
:102F900020F0A0000090049800F00A01009840EA98
:102FA00001100090019805998861009805990862C0
:102FB00006B0704786B0059004910392029305997C
:102FC000086A20F4807008620598C069019005982D
:102FD000006A0090019820F0030001900399019885
:102FE00008430190019820F0F00001900298000140
:102FF000C1B2019808430190009820F4007000903D
:10300000049800F00201009840EA01200090019825
:103010000599C86100980599086206B070470000DC
:1030200086B005900491039202930599086A20F4F2
:10303000805008620598C06901900598006A009068
:10304000019820F4407001900399019840EA012012
:103050000190019820F4704001900298000381B221
:10306000019808430190009820F4005000900498C3
:1030700000F00201009840EA0130009001980599A3
:10308000C86100980599086206B0704780B584B0A1
:10309000039003980068006920F44050039A116877
:1030A000D26810430861039988680A694969104326
:1030B0000843029003980068C06841F20C6188439D
:1030C0000299084303990968C86003980068406939
:1030D00020F44070039A1168926910434861039884
:1030E000006843F60001C4F20101884204D1FFE701
:1030F000FEF778F8019003E0FEF762F80190FFE731
:10310000019819214843039A116852689200B0FB54
:10311000F2FC48F21F52C5F2EB12ACFB023043093D
:10312000642003FB10CC322000EB0C10A0FB020249
:10313000F02000EA521000EB0310C2F343121044D7
:10314000886004B080BD000080B586B0DDF820C086
:10315000049003918DF80B200193FFE70498006819
:10316000006803990840401AB0FA80F040099DF8C1
:103170000B1088422ED1FFE70898013048B3FFE7D3
:10318000089840B1FFE7FDF72BFE0199401A089916
:1031900088421DD9FFE704980168C86820F4D07000
:1031A000C86004980168486920F0010048610499EA
:1031B000202081F83D00049981F83E00FFE7049942
:1031C000002081F83C00FFE703208DF8170005E0A0
:1031D000FFE7C3E700208DF81700FFE79DF8170011
:1031E00006B080BDFFE7FEE781B08DF803009DF9D2
:1031F000030000280ED4FFE79DF9031001F01F0221
:10320000012090404A094EF20011CEF2000141F82F
:103210002200FFE701B070474EF60C50CEF20000DE
:103220000068C0F30220704782B08DF8070000915B
:103230009DF9070000280AD4FFE7009800019DF9D6
:1032400007104EF20042CEF2000288540BE00098C4
:1032500000019DF8071001F00F014EF61452CEF256
:1032600000028854FFE702B07047000083B002906C
:10327000029800F0070000904EF60C51CEF20001CB
:103280000868019001984FF6FF02104001900198E4
:10329000009A40EA02200022C0F2FA521043019044
:1032A0000198086003B0704780B582B0019000912A
:1032B00040F27420C2F2000001A901224FF6FF7310
:1032C000FFF7A0FA019802B080BD000080B582B07F
:1032D00000200190FDF798FDFFF77CFCFFF73CFB19
:1032E000FFF7CEFBFFF768FBFFE7FDF70BFBFDF7F2
:1032F00011F902460B4643F61640C0F6000000F0F6
:1033000005F84FF47A70FDF7B9FBEEE70FB4054B03
:1033100010B503A9044A029800F0DAF810BC5DF871
:1033200014FB0000A93200080000002002E008C8D9
:10333000121F08C1002AFAD170477047002001E02F
:1033400001C1121F002AFBD1704700002DE9FF5F69
:1033500082B00021DDE90430020DDDF840B0034306
:1033600018D044F61050A2F2FF32424315141198BF
:1033700001281FD0A5EB0B00401C5FEA000A4FF0AC
:1033800000064E4FDFF83891B046504615D5CAF1C9
:10339000000413E0119801244AA3012801D16FEA27
:1033A0000B010298119AC0E90031C0E9024206B04F
:1033B000BDE8F09FCBF10000DFE704460021404A62
:1033C000491842EB0450CDE9001012E0E00707D0A5
:1033D00032463B4640464946FDF725F88046894639
:1033E00032463B4610461946FDF71DF806460F4685
:1033F0006410002CEAD1DDE90401DDE90023BAF113
:10340000000F06DAFDF70FF842464B46FDF70BF8C2
:1034100005E0FDF7AAF942464B46FDF7A6F904463A
:103420000E460022284BFDF727FA03D84FF0FF3055
:10343000014607E00022254B20463146FCF74CFFB1
:10344000FDF702FA102409E0002C0ADB0A2200230F
:10345000FDF7A5F8039B30321A55641E50EA0102AD
:10346000F2D1641C039AC4F111031444119A012A85
:1034700003D0012208430DD10AE0084304D0002004
:103480004FF0110B119072E7A3EB0B056D1E0DE0D1
:103490005B4504DD4FF0000205F1010504E003DAAD
:1034A0004FF00002A5F10105002AECD00298119915
:1034B000C0E90231C0E9004579E70000000014408E
:1034C0000000F03F300000000000F0430000E03F4B
:1034D0002DE9FF4F95B09B468946064600250FE231
:1034E000252877D100242746F84A0121059400E0D9
:1034F000044316F8013F203B01FA03F01042F7D1D4
:1035000030782A2811D06FF02F033078A0F13002E4
:10351000092A16D8059A44F0020402EB820203EB52
:1035200042021044761C0590EFE759F8042B0592EF
:10353000002A03DA504244F40054059044F0020497
:10354000761C30782E2816D116F8010F44F00404AA
:103550002A280DD06FF02F023078A0F13003092B0C
:1035600009D807EB870302EB4303C718761CF3E780
:1035700059F8047B761C30786C280FD006DC4C2878
:1035800017D068280DD06A2814D104E0742810D010
:103590007A280FD10DE044F400140AE044F48014BA
:1035A00001E044F440147278824202D104F58014A0
:1035B000761C761C307866280BD013DC582877D020
:1035C00009DC002875D04528F6D04628F4D04728D5
:1035D0001AD19DE118E0632835D0642879D0652898
:1035E00012D195E1702873D008DC6728F1D06928E2
:1035F0006FD06E280DD06F2806D1B5E073282CD07F
:10360000752875D0782874D05A46179990476D1C44
:1036100075E1C4F30250022809D003280DD0D9F86F
:10362000001004280DD00D6009F1040967E1D9F8F4
:103630000010EA17C1E90052F6E7D9F800100D8032
:10364000F2E70D70F0E719F8041B8DF80010002068
:103650008DF80100EA46012003E059F804AB4FF071
:10366000FF3061074FF0000102D40DE008F10101C5
:103670008846B9420FDA8045F8DB1AF808100029AD
:10368000F4D108E008F1010188468142FADB1AF81A
:1036900008100029F6D105985B46A0EB08072146E3
:1036A0003846179A00F094FA284400EB080507E022
:1036B0004DE029E10DE01AF8010B5A4617999047A1
:1036C000B8F10108F7D25B4621463846179A13E154
:1036D00042E00A220092C4F302524FF0000A022A8A
:1036E00008D059F804CB032A4FEAEC710AD00DE058
:1036F00029E02AE009F1070121F00702F2E802C1FE
:10370000914609E00FFA8CFC4FEAEC71042A03D1D0
:103710004FFA8CFC4FEAEC71002907DA0A460021C7
:10372000DCF1000C61EB02012D2202E0220504D540
:103730002B228DF80420012203E0E20701D0202291
:10374000F7E7904659E00A2102E010220DE010212F
:103750004FF0000A00910BE010224FF0000A44F0F5
:1037600004040827009203E008224FF0000A0092A8
:10377000C4F30252022A05D059F804CB0021032ACF
:1037800008D009E009F1070121F00702F2E802C1BF
:10379000914605E01FFA8CFC042A01D10CF0FF0CC5
:1037A0004FF00008220728D5702806D0009B83F030
:1037B000100353EA0A0305D00EE040228DF80420DE
:1037C000012208E05CEA010206D030228DF80420D4
:1037D0008DF8050002229046009B83F0080353EA0F
:1037E0000A030AD15CEA010201D1620705D5302241
:1037F0008DF804204FF001087F1E582804D034A013
:1038000003900EA802900DE036A0F9E753466046FB
:10381000009AFCF7C4FE84460398825C0298401E1E
:10382000029002705CEA0100F0D1029806A9081A21
:1038300000F1200A600702D524F4803400E001275B
:10384000574502DDA7EB0A0000E0002000EB0A016B
:10385000009005984144401A0590E00306D45B4669
:103860002146179A059800F0B3F90544002706E0B1
:1038700001A85A46C05D179990476D1C7F1C4745AB
:10388000F6DBE0030CD55B462146179A059800F05D
:103890009FF9054404E030205A46179990476D1C63
:1038A0000099481E00900029F5DC08E00298029972
:1038B0005A460078491C0291179990476D1CBAF13D
:1038C0000001AAF1010AF1DC65E10000092801000C
:1038D0003031323334353637383961626364656686
:1038E0000000000030313233343536373839414248
:1038F000434445460000000000F058F90544761C9A
:10390000307800287FF4ECAD19B02846BDE8F08F80
:10391000620700D4062709F1070222F0070CFCE831
:103920000223E14603F000485FEA080C02D00FF2E0
:10393000702C0DE05FEA045C02D50FF2682C07E002
:103940005FEAC47C02D00FF2602C01E0AFF2700C91
:103950004FF0FF3823F00043CDF850C065280CD05D
:1039600006DC452809D046281DD047283DD13DE03A
:10397000662818D067287ED138E00021112F01DB9E
:10398000112000E0781CCDE9000106A90EA8FFF780
:10399000DDFCDDE90F010E9A03910021009207F191
:1039A000010A04914DE04FF000400097CDE901106D
:1039B00006A90EA8FFF7CAFCDDE90F0203920E9BD1
:1039C00011990022DDF80CA00093049211B9791C22
:1039D00000EB010AB7EB0A0004D4C0F1FF3007F195
:1039E000010A0490AAEB0700019044E0012F00DADD
:1039F00001270021112F01DD112000E03846CDE91B
:103A0000000106A90EA8FFF7A1FCDDE90F010E9A3F
:103A10000391002104910092BA4621070CD4039926
:103A2000514500DA8A46BAF1010F05DD009AAAF184
:103A30000101515C302908D0B84202DA10F1040FBC
:103A400006DA0121CDE9011015E0AAF10101E9E74B
:103A5000002805DC049901440491AAEB000102E06E
:103A6000411C514500DD8A460499401A401C0190D2
:103A70004FF000400290200704D40198504501DB2C
:103A8000CDF8048000208DF84F0002980DF14F070B
:103A9000B0F1004F25D02B200E9002984FF0020875
:103AA00000280CDA404202902D200E9007E00A21F7
:103AB0000298FCF75EFD3031029007F8011DB8F165
:103AC0000001A8F10108F2DC02980028EFD1791E6C
:103AD0000E980870307800F0200040F0450007F89C
:103AE000020D12A8C01B00F107081498007800B15D
:103AF000012000EB0A01019801EBE07105984144B7
:103B0000401A401E0590E00306D45B462146179AF2
:103B1000059800F05DF805441498007818B15A46ED
:103B2000179990476D1CE00324D55B462146179AF0
:103B3000059800F04DF805441CE00498002807DBC8
:103B4000DDE90301884203DD0098405C179901E03C
:103B5000179930205A469047049805F10105401CFA
:103B600004900198401E019004D12E205A461799C6
:103B700090476D1CBAF10001AAF1010ADDDC05E0F5
:103B800017F8010B5A46179990476D1CB8F10001C0
:103B9000A8F10108F4DC5B462146179A0598ABE6CC
:103BA0002D0000002B000000200000002DE9F04156
:103BB000044600251E461746880404D405E039460D
:103BC0002020B0476D1C641EF9D52846BDE8F08161
:103BD0002DE9F041044600251E469046C80301D554
:103BE000302700E02027880404D505E04146384608
:103BF000B0476D1C641EF9D52846BDE8F081000071
:103C0000000000000000010203040607080900008C
:103C100000000102030454656D7065723A25660A5E
:103C200000000000483C00080000002010000000D8
:103C30002C330008583C000810000020B00A000097
:103C40003C33000800000000000000000024F400E5
:083C500001000000100000005B
:04000005080000ED02
:00000001FF
